:020000040000FA
:060000001C204A204F28DD
:08000800FD000308FE00831255
:1000100003137E0883007D0809000B1D102886014C
:100020008C1C18288600540881000B118C10531466
:100030007E0883007D08090083168F308F0571309C
:100040008F0483120317FF309E0000309F000313BC
:1000500083163F3085000F308600FF308700831203
:100060008501860187011F101F139F1383165030CF
:100070009F058312C3309F058C10083092008316B1
:100080004030920083128B120B1183168130810055
:10009000831281011F1483168312080008000310C5
:1000A00020082107A800A80C031022082307A90094
:1000B000A90C031024082507AA00AA0C031026087F
:1000C0002707AB00AB0C031028082907AC00AC0CC9
:1000D00003102A082B07AD00AD0C03102C082D07C8
:1000E000AE00AE0CB00103102E08B0002F08B00710
:1000F000031C7C280130A029B1010314200832021E
:1001000003188B28B3012008B2002108B400063080
:10011000B1000030B90003142108320203189A28F4
:100120002008B3002108B2002208B4000530B10055
:100130000130B9000314220832020318A92821084B
:10014000B3002208B2002308B4000530B100023029
:10015000B9000314230832020318B8282208B30098
:100160002308B2002408B4000530B1000330B90000
:100170000314240832020318C7282308B3002408F4
:10018000B2002508B4000530B1000430B9000314F2
:10019000250832020318D6282408B3002508B20027
:1001A0002608B4000530B1000530B9000314260854
:1001B00032020318E5282508B3002608B2002708F4
:1001C000B4000530B1000630B9000314270832022C
:1001D0000318F3282608B3002708B200B40106303C
:1001E000B1000730B900031432085A02031CFA2880
:1001F0000230A029BA0103103308BA003208BA0746
:10020000BA0C0310B40C03103408BA07BA0C03106C
:10021000BA0C2E08BB0003143A08BB0203143108C1
:10022000053C031D22293B08BC000310BB0C3B0806
:10023000BC070310BB0C0310BB0C0310BB0C3B082A
:10024000BC0736293B08BC000310BB0C0310BB0CD9
:100250003B08BC070310BB0C0310BB0C3B08BC07DE
:100260000310BB0C0310BB0C3B08BC0703143C0879
:10027000B302031CB30103143C08B202031CB20115
:1002800003143C08B402031CB4013308BD00320857
:10029000BD070030BF073408BD070030BF07330873
:1002A000C0003908C1008D214208C4004308C500C0
:1002B000B90A3208C0003908C1008D214208C407BC
:1002C0004308C507B90A3408C0003908C1008D21A8
:1002D0004208C4074308C5070310BD0DBF0DBD0D7F
:1002E000BF0DBD0DBF0DCB010830C6004608031978
:1002F0008D29C60303144708490248084A02CB0C5B
:10030000031C8C29031447084902C70048084A0205
:10031000CA000310CA0CC90C7629C201C3010430FB
:10032000C600460803199F290310C10C031C9B2912
:1003300003104008C307C30CC20CC6039129080070
:10034000531CD22953100708D60A5608A03A031D99
:10035000BF29D6015208403A031DB629D90A5908C7
:100360000A3A031DB529CD03D901B729D901D70A06
:1003700057080A3A031DBF29D701D321CC004E08E4
:10038000CF004C0803144D0203080539CE00500875
:100390000339303E84000008D1005208483A031D5A
:1003A000D229D1014F289F149F18D42903101E0C65
:0403B000031008002E
:02400E00D430AC
:00000001FF
